:100000000C942A000C943F000C943F000C943F0089
:100010000C943F000C943F000C943F000C943F0064
:100020000C943F000C943F000C943F000C943F0054
:100030000C943F000C943F000C943F000C943F0044
:100040000C943F000C943F000C943F000C943F0034
:100050000C943F0011241FBECFE5D8E0DEBFCDBF1A
:1000600010E0A0E6B0E0ECE3F3E002C005900D92F2
:10007000A236B107D9F70E9441000C949C010C9460
:100080000000CF93DF931F92CDB7DEB70E941F0110
:100090006FEF80E00E94EB0010E0812F0E944F0183
:1000A000CE0101960E947401698180E00E940501E1
:1000B0002FE38DE093E0215080409040E1F700C0B5
:1000C00000001F5FEACF843008F07BC0683008F082
:1000D0007AC04130C1F5813091F028F08230D9F0FA
:1000E000833029F172C02AB381E090E002C0880F0A
:1000F000991F6A95E2F7822B8ABB81E0089527B3A6
:1001000081E090E002C0880F991F6A95E2F7822B88
:1001100087BB81E0089524B381E090E002C0880F9E
:10012000991F6A95E2F7822B84BB81E0089521B381
:1001300081E090E002C0880F991F6A95E2F7822B58
:1001400081BB81E00895411142C0813099F028F0CF
:100150008230E9F0833041F13CC02AB381E090E085
:1001600002C0880F991F6A95E2F7809582238ABBA7
:1001700081E0089527B381E090E002C0880F991FC5
:100180006A95E2F78095822387BB81E0089524B3C6
:1001900081E090E002C0880F991F6A95E2F7809590
:1001A000822384BB81E0089521B381E090E002C006
:1001B000880F991F6A95E2F78095822381BB81E0C1
:1001C000089580E0089580E0089581E0089580E03A
:1001D000089581E008958430A0F4813049F028F03A
:1001E000823049F0833051F00EC06ABB81E008953F
:1001F00067BB81E0089564BB81E0089561BB81E045
:10020000089580E0089580E008958430A0F481305E
:1002100049F028F0823049F0833051F00EC06BBBBA
:1002200081E0089568BB81E0089565BB81E0089591
:1002300062BB81E0089580E0089580E008958DB16B
:100240008F7D8DB98DB180618DB941E064E081E031
:100250000E94630041E065E081E00E94630040E0AD
:1002600066E081E00E94630041E067E081E00E9477
:1002700063008DB1877F8DB98DB18B7F8DB98DB1C5
:1002800081608DB98DB18D7F8DB98EB18E7F8EB924
:100290008DB18F778DB98DB180648DB908959091AE
:1002A00060009130F9F4109260008FB980E090E026
:1002B000DC0103C00196A11DB11D779907C0803AEA
:1002C00026E8920721E0A207B105A0F3803A9648FC
:1002D000A140B10511F482E001C081E091E090936A
:1002E0006000089583E00895FC01909160009130D2
:1002F00009F51092600040E050E0BA0104C04F5F81
:100300005F4F6F4F7F4F779907C0403A86E8580795
:1003100081E06807710598F3403A564861407105DD
:1003200021F08FB1808381E001C082E091E0909361
:0C0330006000089583E00895F894FFCF6A
:02033C000100BE
:00000001FF
