:100000000C942A000C943F000C943F000C943F0089
:100010000C943F000C943F000C943F000C943F0064
:100020000C943F000C943F000C943F000C943F0054
:100030000C943F000C943F000C943F000C943F0044
:100040000C943F000C943F000C943F000C943F0034
:100050000C943F0011241FBECFE5D8E0DEBFCDBF1A
:1000600010E0A0E6B0E0E2EDF3E002C005900D92F2
:10007000A236B107D9F70E9469000C94E7010C94ED
:100080000000CF93DF93D82FC62F40E064E081E0DB
:100090000E940B018D2F0E94C3018C2F0E94C3016F
:1000A00041E064E081E00E940B01DF91CF9108956F
:1000B0006FEF89E00E94410067E08BE00E94410001
:1000C0006FE08AE00E94410061E08CE00E94410004
:1000D00008950E9493010E94580060E0C1E010C0A2
:1000E000D1E0D60F8C2F0E9441002FE986E891E0E5
:1000F000215080409040E1F700C00000CF5F6D2F9D
:10010000C93070F3EBCF843008F07BC0683008F062
:100110007AC04130C1F5813091F028F08230D9F0B9
:10012000833029F172C02AB381E090E002C0880FC9
:10013000991F6A95E2F7822B8ABB81E0089527B365
:1001400081E090E002C0880F991F6A95E2F7822B48
:1001500087BB81E0089524B381E090E002C0880F5E
:10016000991F6A95E2F7822B84BB81E0089521B341
:1001700081E090E002C0880F991F6A95E2F7822B18
:1001800081BB81E00895411142C0813099F028F08F
:100190008230E9F0833041F13CC02AB381E090E045
:1001A00002C0880F991F6A95E2F7809582238ABB67
:1001B00081E0089527B381E090E002C0880F991F85
:1001C0006A95E2F78095822387BB81E0089524B386
:1001D00081E090E002C0880F991F6A95E2F7809550
:1001E000822384BB81E0089521B381E090E002C0C6
:1001F000880F991F6A95E2F78095822381BB81E081
:10020000089580E0089580E0089581E0089580E0F9
:10021000089581E00895843008F07BC0683008F0CC
:100220007AC04130C1F5813091F028F08230D9F0A8
:10023000833029F172C02BB381E090E002C0880FB7
:10024000991F6A95E2F7822B8BBB81E0089528B352
:1002500081E090E002C0880F991F6A95E2F7822B37
:1002600088BB81E0089525B381E090E002C0880F4B
:10027000991F6A95E2F7822B85BB81E0089522B32E
:1002800081E090E002C0880F991F6A95E2F7822B07
:1002900082BB81E00895411142C0813099F028F07D
:1002A0008230E9F0833041F13CC02BB381E090E033
:1002B00002C0880F991F6A95E2F7809582238BBB55
:1002C00081E0089528B381E090E002C0880F991F73
:1002D0006A95E2F78095822388BB81E0089525B373
:1002E00081E090E002C0880F991F6A95E2F780953F
:1002F000822385BB81E0089522B381E090E002C0B3
:10030000880F991F6A95E2F78095822382BB81E06E
:10031000089580E0089580E0089581E0089580E0E8
:10032000089581E008958DB18F7D8DB98DB1806183
:100330008DB941E064E081E00E94830041E065E026
:1003400081E00E94830040E066E081E00E9483003B
:1003500041E067E081E00E9483008DB1877F8DB925
:100360008DB18B7F8DB98DB181608DB98DB18D7F50
:100370008DB98EB18E7F8EB98DB18F778DB98DB1DC
:1003800080648DB90895909160009130F1F41092DD
:1003900060008FB980E090E0DC0103C00196A11DF0
:1003A000B11D779906C0803127E29207A105B105FA
:1003B000A8F380319742A105B10511F482E001C094
:1003C00081E091E090936000089583E00895F894AF
:0203D000FFCF5D
:0203D200010028
:00000001FF
