:100000000C942A000C943F000C943F000C943F0089
:100010000C943F000C943F000C943F000C943F0064
:100020000C943F000C943F000C943F000C943F0054
:100030000C943F000C943F000C943F000C943F0044
:100040000C943F000C943F000C943F000C943F0034
:100050000C943F0011241FBECFE5D8E0DEBFCDBF1A
:1000600010E0A0E6B0E0EAE2F3E002C005900D92F5
:10007000A236B107D9F70E9441000C9493010C9469
:100080000000CF93DF931F92CDB7DEB70E94160119
:100090006FEF80E00E94E2001FEFCE0101960E9408
:1000A0006B01812F0E944601698180E00E94FC0063
:1000B0001150F3CF843008F07BC0683008F07AC06C
:1000C0004130C1F5813091F028F08230D9F0833091
:1000D00029F172C02AB381E090E002C0880F991F15
:1000E0006A95E2F7822B8ABB81E0089527B381E00D
:1000F00090E002C0880F991F6A95E2F7822B87BBB8
:1001000081E0089524B381E090E002C0880F991F38
:100110006A95E2F7822B84BB81E0089521B381E0E8
:1001200090E002C0880F991F6A95E2F7822B81BB8D
:1001300081E00895411142C0813099F028F0823069
:10014000E9F0833041F13CC02AB381E090E002C085
:10015000880F991F6A95E2F7809582238ABB81E018
:10016000089527B381E090E002C0880F991F6A9537
:10017000E2F78095822387BB81E0089524B381E074
:1001800090E002C0880F991F6A95E2F7809582235C
:1001900084BB81E0089521B381E090E002C0880F24
:1001A000991F6A95E2F78095822381BB81E00895CB
:1001B00080E0089580E0089581E0089580E008954A
:1001C00081E008958430A0F4813049F028F0823035
:1001D00049F0833051F00EC06ABB81E0089567BBDF
:1001E00081E0089564BB81E0089561BB81E00895DA
:1001F00080E0089580E008958430A0F4813049F0D3
:1002000028F0823049F0833051F00EC06BBB81E0A2
:10021000089568BB81E0089565BB81E0089562BBE5
:1002200081E0089580E0089580E008958DB18F7D8C
:100230008DB98DB18F7E8DB940E064E081E00E9480
:100240005A0040E065E081E00E945A0041E066E02B
:1002500081E00E945A0040E067E081E00E945A007D
:100260008DB1877F8DB98DB18B7F8DB98DB18E7F2B
:100270008DB98DB18D7F8DB98EB18E7F8EB98DB1D7
:100280008F778DB98DB180648DB90895909160009C
:100290009130F9F4109260008FB980E090E0DC01B9
:1002A00003C00196A11DB11D779907C0803A26E8C9
:1002B000920721E0A207B105A0F3803A9648A14039
:1002C000B10511F482E001C081E091E090936000FB
:1002D000089583E00895FC0190916000913009F544
:1002E0001092600040E050E0BA0104C04F5F5F4FE1
:1002F0006F4F7F4F779907C0403A86E8580781E0F3
:100300006807710598F3403A56486140710521F03D
:100310008FB1808381E001C082E091E09093600022
:0A032000089583E00895F894FFCFDC
:02032A000100D0
:00000001FF
