S016000055534152542041546D65676133322E73726563CB
S11300000C942A000C9447000C9447000C9447006D
S11300100C9447000C9447000C9447000C94470040
S11300200C9447000C9447000C9447000C94470030
S11300300C9447000C94CC020C9447000C940C03D1
S11300400C9447000C9447000C9447000C94470010
S11300500C94470011241FBECFE5D8E0DEBFCDBF0E
S113006010E0A0E6B0E0EAE9F6E002C005900D92E7
S1130070A236B107D9F720E0A2E6B0E001C01D9294
S1130080AA36B207E1F70E9401010C944B030C94C9
S1130090000041E063E081E00E94A6018FEC97E05C
S11300A00197F1F700C0000040E063E081E00E94A6
S11300B0A6018FEC97E00197F1F700C000000895C6
S11300C0CF93C82F41E061E081E00E94A60140E0A7
S11300D062E081E00E94A6016C2F62956F7080E05F
S11300E00E942E020E9449006C2F80E00E942E0282
S11300F00E9449008FEC97E00197F1F700C00000DF
S1130100CF910895CF93C82F40E061E081E00E9431
S1130110A60140E062E081E00E94A6016C2F629596
S11301206F7080E00E942E020E9449006C2F80E0D4
S11301300E942E020E9449008FEC97E00197F1F78C
S113014000C00000CF91089581E00E9482008FE1F9
S11301509EE40197F1F700C0000008952FE788E3BB
S113016091E0215080409040E1F700C0000041E060
S113017064E080E00E941E0141E065E080E00E94AE
S11301801E0141E066E080E00E941E0141E067E05C
S113019080E00E941E0141E061E081E00E941E01B6
S11301A041E062E081E00E941E0141E063E081E001
S11301B00E941E0182E00E9482008FE59AEE019760
S11301C0F1F700C0000088E20E9482008FEC97E003
S11301D00197F1F700C000008FE00E9482008FECCD
S11301E097E00197F1F700C000000E94A40086E0A8
S11301F00E9482008FEC97E00197F1F700C00000A5
S11302000895CF93DF931F92CDB7DEB70E94AE005F
S11302100E945E0281E40E947C02CE0101960E944B
S1130220A2028981882341F08D3021F480EC0E9460
S1130230820002C00E9460001982EFCF843008F06F
S11302407BC0683008F07AC04130C1F5813091F04C
S113025028F08230D9F0833029F172C02AB381E0CA
S113026090E002C0880F991F6A95E2F7822B8ABB3F
S113027081E0089527B381E090E002C0880F991FC0
S11302806A95E2F7822B87BB81E0089524B381E06D
S113029090E002C0880F991F6A95E2F7822B84BB15
S11302A081E0089521B381E090E002C0880F991F96
S11302B06A95E2F7822B81BB81E00895411142C027
S11302C0813099F028F08230E9F0833041F13CC06C
S11302D02AB381E090E002C0880F991F6A95E2F783
S11302E0809582238ABB81E0089527B381E090E062
S11302F002C0880F991F6A95E2F78095822387BB15
S113030081E0089524B381E090E002C0880F991F32
S11303106A95E2F78095822384BB81E0089521B336
S113032081E090E002C0880F991F6A95E2F78095FA
S1130330822381BB81E0089580E0089580E00895E0
S113034081E0089580E0089581E00895843008F004
S11303507BC0683008F07AC04130C1F5813091F03B
S113036028F08230D9F0833029F172C02BB381E0B8
S113037090E002C0880F991F6A95E2F7822B8BBB2D
S113038081E0089528B381E090E002C0880F991FAE
S11303906A95E2F7822B88BB81E0089525B381E05A
S11303A090E002C0880F991F6A95E2F7822B85BB03
S11303B081E0089522B381E090E002C0880F991F84
S11303C06A95E2F7822B82BB81E00895411142C015
S11303D0813099F028F08230E9F0833041F13CC05B
S11303E02BB381E090E002C0880F991F6A95E2F771
S11303F0809582238BBB81E0089528B381E090E04F
S113040002C0880F991F6A95E2F78095822388BB02
S113041081E0089525B381E090E002C0880F991F20
S11304206A95E2F78095822385BB81E0089522B323
S113043081E090E002C0880F991F6A95E2F78095E9
S1130440822382BB81E0089580E0089580E00895CE
S113045081E0089580E0089581E00895843050F5A6
S11304606295607F813071F028F0823099F083309A
S1130470C9F022C08BB38F708BBB8BB3682B6BBB63
S113048081E0089588B38F7088BB88B3682B68BBFC
S113049081E0089585B38F7085BB85B3682B65BBF8
S11304A081E0089582B38F7082BB82B3682B62BBF4
S11304B081E0089580E0089581E0089510BC83E30D
S11304C089B98BB18D7F8BB98BB18E7F8BB98AB192
S11304D08B7F8AB986E880BD8AB18F778AB98AB161
S11304E08F7B8AB98AB18F7D8AB98AB180618AB9D2
S11304F08AB188608AB9089590916000913001F5BD
S11305001092600040E050E0BA0104C04F5F5F4FBA
S11305106F4F7F4F5D9907C0403A96E8590791E0C5
S11305206907710599F7403A56486140710519F019
S11305308CB981E001C082E091E09093600008955D
S113054083E00895009721F120916000213011F596
S11305501092600040E050E0BA0104C04F5F5F4F6A
S11305606F4F7F4F5F9907C0403A26E8520721E05A
S11305706207710599F7403A56486140710519F0D0
S11305802CB1FC01208381E08093600082E0089517
S113059084E0089583E008951F920F920FB60F929E
S11305A011242F933F934F935F936F937F938F9374
S11305B09F93AF93BF93EF93FF9380916400E09177
S11305C06600F0916700E80FF11D9CB190838F5F86
S11305D0809364009091650089130DC010926400AB
S11305E081E080936000E0916200F09163000995DE
S11305F08AB18F778AB9FF91EF91BF91AF919F91A3
S11306008F917F916F915F914F913F912F910F90B7
S11306100FBE0F901F9018951F920F920FB60F9256
S113062011242F933F934F935F936F937F938F93F3
S11306309F93AF93BF93EF93FF93809164008F5F79
S113064080936400E0916800F0916900E80FF11D67
S1130650808181110EC01092640081E0809360005B
S1130660E0916200F091630009958AB18F7B8AB9A9
S113067001C08CB9FF91EF91BF91AF919F918F9180
S11306807F916F915F914F913F912F910F900FBE8A
S10D06900F901F901895F894FFCF07
S105069A010059
S9030000FC
